:0400000080313C28E7
:100008007E14803120007F08F1008B190B1C112809
:100018008431BC2480310B1037282100911E1B2805
:100028002000911E1B2884313C2480313728210070
:10003800111E25282000111E252884310424803112
:1000480037282100941E2F282000941E2F28843141
:100058002124803137282100141E37282000141E3F
:1000680037288331E72371082000FF007E1009003C
:1000780080313E283030840023308500C030FE00B7
:100088000030FF0084319B248031F801F901FA0126
:10009800FB0120308400003085002830FE0000304D
:1000A800FF0084319B247E1020008331502BF60002
:1000B8007603031967280230760603196728043087
:1000C8007606031D6B285A30F3007308F5000330D9
:1000D800760603197728053076060319772806303F
:1000E8007606031D7B282D30F3007308F5000730D2
:1000F8007606031D83281E30F3007308F500F4010B
:10010800CB2A22008D149C2822000D159C28220041
:100118008D159C2822000D169C2822008D169C28DF
:1001280022000D179C2822008D179C2822008E146F
:1001380076030319AB28033076060319AB2805307C
:1001480076060319AB2807307606031DB12822006E
:100158000F1075088431B324803122000F14023047
:1001680076060319C328033076060319C328063018
:1001780076060319C32807307606031DC8288F1092
:1001880075088431B324803122008F140430760638
:100198000319DA28053076060319DA2806307606B8
:1001A8000319DA2807307606031DDF280F117508B2
:1001B8008431B324803122000F1576030319F02807
:1001C800033076060319F028053076060319F0285F
:1001D80007307606031DF5288F1175088431B3247E
:1001E800803122008F150230760603190729033063
:1001F80076060319072906307606031907290730FA
:100208007606031D0C290F1275088431B32480313A
:1002180022000F160430760603191E2905307606CB
:1002280003191E290630760603191E29073076069B
:10023800031D23298F1275088431B32480312200CD
:100248008F167603031934290330760603193429E7
:10025800053076060319342907307606031D392937
:100268000F1375088431B324803122000F17023030
:10027800760603194B290330760603194B290630F5
:10028800760603194B2907307606031D50298F136C
:1002980075088431B324803122008F170430760624
:1002A8000319622905307606031962290630760695
:1002B8000319622907307606031D6729101075088F
:1002C8008431B3248031220010147603031978296D
:1002D800033076060319782905307606031978293C
:1002E80007307606031D7D29901075088431B324E4
:1002F8008031220090140230760603198F290330CA
:10030800760603198F290630760603198F290730D8
:100318007606031D9429101175088431B3248031A1
:1003280022001015043076060319A6290530760632
:100338000319A629063076060319A629073076067A
:10034800031DAB29901175088431B3248031220034
:10035800901576030319BC29033076060319BC29C6
:10036800053076060319BC2907307606031DC12916
:10037800101275088431B32480312200101602301F
:1003880076060319D329033076060319D3290630D4
:1003980076060319D32907307606031DD82990124B
:1003A80075088431B3248031220090160430760613
:1003B8000319EA29053076060319EA290630760674
:1003C8000319EA2907307606031DEF29101375086B
:1003D8008431B32480312200101776030319002AD0
:1003E800033076060319002A053076060319002A19
:1003F80007307606031D052A901375088431B32447
:10040800803122009017023076060319172A03302C
:1004180076060319172A063076060319172A0730B5
:100428007606031D1D2A27000C1075088431B32495
:10043800803127000C140430760603192F2A053062
:10044800760603192F2A0630760603192F2A073055
:100458007606031D342A8C1075088431B324803144
:1004680027008C1476030319452A033076060319EE
:10047800452A053076060319452A07307606031DF6
:100488004A2A0C1175088431B324803127000C15D1
:100498000230760603195C2A0330760603195C2AB3
:1004A8000630760603195C2A07307606031D612A92
:1004B8008C1175088431B324803127008C150430E1
:1004C80076060319732A053076060319732A06304F
:1004D80076060319732A07307606031D782A0C124C
:1004E80075088431B324803127000C16760303196C
:1004F800892A033076060319892A053076060319F6
:10050800892A07307606031D8E2A8C1275088431D5
:10051800B324803127008C16023076060319A02AEE
:10052800033076060319A02A063076060319A02A96
:1005380007307606031DA52A0C1375088431B324E9
:10054800803127000C17043076060319B72A0530C6
:1005580076060319B72A063076060319B72A073034
:100568007606031DBC2A8C1375088431B3248031A8
:1005780027008C1722008D100D118D110D128D1270
:100588000D138D138E100130F3007308F407083033
:100598007402031808007408840008300402031861
:1005A8009C28843104358B3E82009C289030F700CB
:1005B80077082000C80048080319EC2A0130803168
:1005C8005B20823101302000C8024808031DE22A5E
:1005D8009030F7007708C80048080319FD2A023050
:1005E80080315B20823101302000C8024808031D99
:1005F800F32A9030F7007708C800480803190E2B33
:10060800043080315B20823101302000C802480864
:10061800031D042B9030F7007708C8004808031919
:100628001F2B033080315B20823101302000C8024B
:100638004808031D152B9030F7007708C8004808B4
:100648000319302B053080315B20823101302000C6
:10065800C8024808031D262B9030F7007708C80009
:1006680048080319412B063080315B208231013064
:100678002000C8024808031D372B9030F700770880
:10068800C800480803190800073080315B20823110
:1006980001302000C802452B8431A7248331200073
:1006A800CD01C0304D0203186D2B4D08303EC900F6
:1006B800CA012330CA3D490886004A0887006430C9
:1006C80081000130C9004908CD07C0304D02031C24
:1006D800592BCD01C0304D020318AA2B4D08303ECE
:1006E800C900CA012330CA3D490886004A08870064
:1006F800643081004D08013EC90000300318013004
:10070800CA003030CB002330CC0049084B078600A4
:100718004A084C3D870081014D08023EC90000305F
:1007280003180130CA003030CB002330CC00490810
:100738004B0786004A084C3D870081010330C900F9
:100748004908CD07C0304D02031C722B8231DA22D2
:100758008331AA2B22008C01FF3021008C0023005A
:100768008C01023022008D00013021008D00240010
:100778008D0122008E01FD3021008E00FE30220006
:100788008F0021008F01FF3022009000210090018E
:1007980023009001FF3027008C0026008C012800E0
:1007A8008C0127008D013F3026008D00183028006D
:1007B8008D0029008D012100951722009D01270039
:1007C80015148B150800083020004F020318012C5F
:1007D8007B08383E86008701010829009200013015
:1007E800F0007008FB0708307B020318FB0101309A
:1007F800F00070082000CF0708002100141208003C
:10080800083020004E0203181E2C4508283E86009A
:100818008701010823009A000130F00070082000C9
:10082800C507083045020318C5010130F0007008FB
:10083800CE0708002100111208002900951C262C5B
:10084800151215161108F0007908303E8600870148
:10085800700881000130F0007008F907083079024B
:100868000318F9010130F00070082000C6070800DD
:1008780023009D1C412C1D121D161908F000200094
:100888004208203E86008701700881000130F00090
:100898007008C207083042020318C2010130F00094
:1008A8007008C1070800210094121412483029006A
:1008B80097008030950026309600223093009401EE
:1008C800FA01FB010830F20072082000CF00F9019C
:1008D800C701C601210094160800210091121112C7
:1008E800483023009F0080309D0026309E00223033
:1008F8009B009C012000C401C5010830F200720869
:10090800CE00C201C301C101210091160800803147
:1009180085288031882880318B2880318E28803145
:100928009128803194288031972880319A28640052
:10093800800101310130FE020030FF3B7F087E0458
:10094800031900349C2C8431C32484318331AE23B1
:100958008431843171248431843157240800F200B1
:10096800720803190800003200320130F202B42C78
:100978002700151C0800161C0800161008007A30FD
:0A098800210099009A01980108006F
:020000040001F9
:04000E00E4FFFFDF2D
:00000001FF
