:0400000080313C28E7
:100008007E14803120007F08F1008B190B1C112809
:1000180083314B2380310B1037282100911E1B2878
:100028002000911E1B288231D522803137282100DB
:10003800111E25282000111E252882319D2280317D
:1000480037282100941E2F282000941E2F28823143
:10005800BA22803137282100141E37282000141EA8
:1000680037288231802271082000FF007E100900A5
:1000780080313E283030840023308500C030FE00B7
:100088000030FF00833133238031F801F901FA0190
:10009800FB0120308400003085002830FE0000304D
:1000A800FF00833133237E10200082315F2A27002E
:1000B8008C1722000F107808303E86008701233005
:1000C800873D01088331522380310130F3007308E2
:1000D800F80722000F148F107808303E8600870139
:1000E8002330873D01088331522380310130F300EA
:1000F8007308F80722008F140F117808303E860025
:1001080087012330873D0108833152238031013034
:10011800F3007308F80722000F158F117808303E96
:10012800860087012330873D0108833152238031BF
:100138000130F3007308F80722008F150F127808B2
:10014800303E860087012330873D010883315223E2
:1001580080310130F3007308F80722000F168F1260
:100168007808303E860087012330873D01088331B7
:10017800522380310130F3007308F80722008F16EC
:100188000F137808303E860087012330873D010829
:100198008331522380310130F3007308F8072200BD
:1001A8000F178F137808303E860087012330873D6C
:1001B80001088331522380310130F3007308F807B6
:1001C80022008F1710107808303E860087012330F0
:1001D800873D01088331522380310130F3007308D1
:1001E800F8072200101490107808303E8600870126
:1001F8002330873D01088331522380310130F300D9
:100208007308F8072200901410117808303E860011
:1002180087012330873D0108833152238031013023
:10022800F3007308F8072200101590117808303E83
:10023800860087012330873D0108833152238031AE
:100248000130F3007308F80722009015101278089F
:10025800303E860087012330873D010883315223D1
:1002680080310130F3007308F8072200101690124D
:100278007808303E860087012330873D01088331A6
:10028800522380310130F3007308F80722009016DA
:1002980010137808303E860087012330873D010817
:1002A8008331522380310130F3007308F8072200AC
:1002B800101790137808303E860087012330873D59
:1002C80001088331522380310130F3007308F807A5
:1002D8002200901727000C107808303E860087010E
:1002E8002330873D01088331522380310130F300E8
:1002F8007308F80727000C148C107808303E860025
:1003080087012330873D0108833152238031013032
:10031800F3007308F80727008C140C117808303E96
:10032800860087012330873D0108833152238031BD
:100338000130F3007308F80727000C158C117808B2
:10034800303E860087012330873D010883315223E0
:1003580080310130F3007308F80727008C150C1260
:100368007808303E860087012330873D01088331B5
:10037800522380310130F3007308F80727000C1668
:100388008C127808303E860087012330873D0108AB
:100398008331522380310130F3007308F8072700B6
:1003A8008C160C137808303E860087012330873D71
:1003B80001088331522380310130F3007308F807B4
:1003C80027000C178C137808303E860087012330ED
:1003D800873D0108833152230130F3007308F80781
:1003E800080022008C01FF3021008C0023008C01C2
:1003F800023022008D00013021008D0024008D0183
:1004080022008E01FD3021008E00FE3022008F0078
:1004180021008F01FF30220090002100900123006D
:100428009001FF3027008C0026008C0128008C01E9
:1004380027008D013F3026008D00183028008D00E0
:1004480029008D012100951722009D012700151410
:100458008B150800F400F41F352A22008E108D1425
:100468005C2A741F3B2A22008D100D155C2AF41E8D
:10047800412A22000D118D155C2A741E472A22007C
:100488008D110D165C2AF41D4D2A22000D128D16B1
:100498005C2A741D522A22008D125C2AF41C572AE9
:1004A80022008D175C2A741C5C2A22008D138E147E
:1004B80080315B20080083313F238231F701C0304F
:1004C800770203187C2A7708303E2000CA00CB0147
:1004D8002330CB3D4A0886004B08870064308100F2
:1004E8000130CA004A08F707C0307702031C672AA0
:1004F8008331242382317C2A0830200049020318E2
:100508009A2A7B08383E8600870101082900920054
:100518000130F0007008FB0708307B020318FB016C
:100528000130F00070082000C907080021001412EB
:1005380008000830200048020318B72A4508283E5A
:1005480086008701010823009A000130F000700836
:100558002000C507083045020318C5010130F00026
:100568007008C80708002100111208002900951C0E
:10057800BF2A151215161108F0007908303E8600BA
:100588008701700881000130F0007008F907083011
:1005980079020318F9010130F00070082000C6073D
:1005A800080023009D1CDA2A1D121D161908F000E8
:1005B80020004208203E8600870170088100013033
:1005C800F0007008C207083042020318C201013067
:1005D800F0007008C1070800210094121412483076
:1005E800290097008030950026309600223093002D
:1005F8009401FA01FB010830F20072082000C900DA
:10060800F901C701C60121009416080021009112C2
:100618001112483023009F0080309D0026309E0034
:1006280022309B009C012000C401C5010830F20063
:100638007208C800C201C301C10121009116080057
:10064800F8018030F5007508F600760803190800EF
:10065800760882312E2283310310F60C292B640090
:10066800800101310130FE020030FF3B7F087E042B
:1006780003190034342B8331582383318131F52118
:10068800833183310A2383318231F0220800270025
:10069800151C0800161C0800161008004230F2004D
:1006A800F20B542B000008007A30210099009A01BF
:0406B800980108009D
:020000040001F9
:04000E00E4FFFFDF2D
:00000001FF
