:0400000080313C28E7
:100008007E14803120007F08F1008B190B1C112809
:100018008331952380310B1037282100911E1B282E
:100028002000911E1B28833112238031372821009C
:10003800111E25282000111E25288231DA22803140
:1000480037282100941E2F282000941E2F28823143
:10005800F722803137282100141E37282000141E6B
:1000680037288231BD2271082000FF007E10090068
:1000780080313E283030840023308500C030FE00B7
:100088000030FF00833172238031F801F901FA0151
:10009800FB0120308400003085002830FE0000304D
:1000A800FF00833172237E1020008131F52927005B
:1000B8008C1722000F107808303E86008701233005
:1000C800873D010883318A2380310130F5007508A6
:1000D800F80722000F148F107808303E8600870139
:1000E8002330873D010883318A2380310130F500B0
:1000F8007508F80722008F140F117808303E860023
:1001080087012330873D010883318A2380310130FC
:10011800F5007508F80722000F158F117808303E92
:10012800860087012330873D010883318A23803187
:100138000130F5007508F80722008F150F127808AE
:10014800303E860087012330873D010883318A23AA
:1001580080310130F5007508F80722000F168F125C
:100168007808303E860087012330873D01088331B7
:100178008A2380310130F5007508F80722008F16B0
:100188000F137808303E860087012330873D010829
:1001980083318A2380310130F5007508F807220081
:1001A8000F178F137808303E860087012330873D6C
:1001B800010883318A2380310130F5007508F8077A
:1001C80022008F1710107808303E860087012330F0
:1001D800873D010883318A2380310130F500750895
:1001E800F8072200101490107808303E8600870126
:1001F8002330873D010883318A2380310130F5009F
:100208007508F8072200901410117808303E86000F
:1002180087012330873D010883318A2380310130EB
:10022800F5007508F8072200101590117808303E7F
:10023800860087012330873D010883318A23803176
:100248000130F5007508F80722009015101278089B
:10025800303E860087012330873D010883318A2399
:1002680080310130F5007508F80722001016901249
:100278007808303E860087012330873D01088331A6
:100288008A2380310130F5007508F807220090169E
:1002980010137808303E860087012330873D010817
:1002A80083318A2380310130F5007508F807220070
:1002B800101790137808303E860087012330873D59
:1002C800010883318A2380310130F5007508F80769
:1002D8002200901727000C107808303E860087010E
:1002E8002330873D010883318A2380310130F500AE
:1002F8007508F80727000C148C107808303E860023
:1003080087012330873D010883318A2380310130FA
:10031800F5007508F80727008C140C117808303E92
:10032800860087012330873D010883318A23803185
:100338000130F5007508F80727000C158C117808AE
:10034800303E860087012330873D010883318A23A8
:1003580080310130F5007508F80727008C150C125C
:100368007808303E860087012330873D01088331B5
:100378008A2380310130F5007508F80727000C162C
:100388008C127808303E860087012330873D0108AB
:1003980083318A2380310130F5007508F80727007A
:1003A8008C160C137808303E860087012330873D71
:1003B800010883318A2380310130F5007508F80778
:1003C80027000C178C137808303E860087012330ED
:1003D800873D010883318A230130F5007508F80745
:1003E800080083317E2381312000CD01C0304D02C9
:1003F8000318122A4D08303EC900CA012330CA3DED
:10040800490886004A088700643081000130C90025
:100418004908CD07C0304D02031CFE29CD01C0306C
:100428004D0203184F2A4D08303EC900CA01233037
:10043800CA3D490886004A088700643081004D0893
:10044800013EC900003003180130CA003030CB002B
:100458002330CC0049084B0786004A084C3D8700EA
:1004680081014D08023EC900003003180130CA005E
:100478003030CB002330CC0049084B0786004A08AF
:100488004C3D870081010330C9004908CD07C030C1
:100498004D02031C172A8331612381314F2A220020
:1004A8008C01FF3021008C0023008C0102302200D7
:1004B8008D00013021008D0024008D0122008E0165
:1004C800FD3021008E00FE3022008F0021008F01B8
:1004D800FF30220090002100900123009001FF309E
:1004E80027008C0026008C0128008C0127008D0134
:1004F8003F3026008D00183028008D0029008D011E
:100508002100951722009D01270015148B1508005E
:10051800F600F61F932A22008E108D14BA2A761F31
:10052800992A22008D100D15BA2AF61E9F2A22003C
:100538000D118D15BA2A761EA52A22008D110D16C9
:10054800BA2AF61DAB2A22000D128D16BA2A761D7C
:10055800B02A22008D12BA2AF61CB52A22008D175D
:10056800BA2A761CBA2A22008D138E1480315B2099
:100578000800083020004F020318D72A7B08383EAD
:10058800860087010108290092000130F0007008F8
:10059800FB0708307B020318FB010130F0007008EC
:1005A8002000CF070800210014120800083020009E
:1005B8004E020318F42A4508283E860087010108E0
:1005C80023009A000130F00070082000C5070830A9
:1005D80045020318C5010130F0007008CE07080075
:1005E8002100111208002900951CFC2A1512151665
:1005F8001108F0007908303E8600870170088100F4
:100608000130F0007008F907083079020318F90181
:100618000130F00070082000C607080023009D1C68
:10062800172B1D121D161908F00020004208203E45
:1006380086008701700881000130F0007008C20749
:10064800083042020318C2010130F0007008C107E7
:1006580008002100941214124830290097008030B5
:10066800950026309600223093009401FA01FB0190
:100678000830F20072082000CF00F901C701C60156
:10068800210094160800210091121112483023000D
:100698009F0080309D0026309E0022309B009C01E8
:1006A8002000C401C5010830F2007208CE00C20162
:1006B800C301C101210091160800F8018030F7003C
:1006C80077082000C8004808031908004808823144
:1006D8008C22833103102000C80C672B6400800132
:1006E80001310130FE020030FF3B7F087E04031910
:1006F8000034732B83319C2383318231532283311D
:1007080083314723833183312D230800F300F4011B
:1007180073087402031808000130F2007208F40725
:100728008C2B2700151C0800161C08001610080042
:0C0738007A30210099009A019801080015
:020000040001F9
:04000E00E4FFFFDF2D
:00000001FF
