:0400000080313C28E7
:100008007E14803120007F08F1008B190B1C112809
:100018009431652480310B1037282100911E1B284C
:100028002000911E1B289431C324803137282100D9
:10003800111E25282000111E2528953114258031F0
:1000480037282100941E2F282000941E2F28943131
:10005800DE24803137282100141E37282000141E82
:1000680037289531312571082000FF007E100900DE
:1000780080313E28B0308400213085004030FE00B9
:100088000230FF00943183248031FA01FB014430AF
:100098008400003085002230FE000030FF009431DB
:1000A80083242100A001A101A201A301A401A501AB
:1000B800A601A7017E1020008831A9280034003449
:1000C8000034003400340034003400340034003488
:1000D8000034003400340034003400340034003478
:1000E8000034003400340034003400340034003468
:1000F8000034003400340034003400340034003458
:100108000034003400340034003400340034003447
:100118000034003400340034003400340034003437
:100128000034003400340034003400340034003427
:100138000034003400340034003400340034003417
:100148000034003400340034003400340034003407
:1001580000340034003400340034003400340034F7
:1001680000340034003400340034003400340034E7
:1001780000340034003400340034003400340034D7
:1001880000340034003400340034003400340034C7
:1001980000340034003400340034003400340034B7
:1001A80000340034003400340034003400340034A7
:1001B8000034003400340034003400340034003497
:1001C8000034003400340034003400340034003487
:1001D8000034003400340034003400340034003477
:1001E8000034003400340034003400340034003467
:1001F8000034003400340034003400340034003457
:100208000034003400340034003400340034003446
:100218000034003400340034003400340034003436
:100228000034003400340034003400340034003426
:100238000034003400340034003400340034003416
:100248000034003400340034003400340034003406
:1002580000340034003400340034003400340034F6
:1002680000340034003400340034003400340034E6
:1002780000340034003400340034003400340034D6
:1002880000340034003400340034003400340034C6
:1002980000340034003400340034003400340034B6
:1002A80000340034003400340034003400340034A6
:1002B8000034003400340034003400340034003496
:1002C80000340034003400340034003418343C3432
:1002D8003C34183418340034183400343634363486
:1002E80000340034003400340034003436343634FA
:1002F8007F3436347F343634363400340C343E346C
:1003080003341E3430341F340C3400340034633466
:10031800333418340C346634633400341C343634C3
:100328001C346E343B3433346E34003406340634B3
:1003380003340034003400340034003418340C34EE
:100348000634063406340C341834003406340C34BD
:100358001834183418340C34063400340034663435
:100368003C34FF343C3466340034003400340C34FC
:100378000C343F340C340C34003400340034003472
:100388000034003400340C340C34063400340034A7
:1003980000343F3400340034003400340034003476
:1003A8000034003400340C340C34003460343034FD
:1003B80018340C3406340334013400343E346334C6
:1003C80073347B346F3467343E3400340C340E3469
:1003D8000C340C340C340C343F3400341E343334B5
:1003E80030341C34063433343F3400341E34333450
:1003F80030341C34303433341E34003438343C3414
:10040800363433347F343034783400343F34033472
:100418001F343034303433341E3400341C34063442
:1004280003341F34333433341E3400343F3433340C
:10043800303418340C340C340C3400341E34333457
:1004480033341E34333433341E3400341E343334DE
:1004580033343E34303418340E34003400340C3421
:100468000C34003400340C340C34003400340C34B4
:100478000C34003400340C340C34063418340C3486
:100488000634033406340C34183400340034003491
:100498003F34003400343F340034003406340C3424
:1004A8001834303418340C34063400341E343334E1
:1004B800303418340C3400340C3400343E34633493
:1004C8007B347B347B3403341E3400340C341E34C8
:1004D800333433343F343334333400343F346634C4
:1004E80066343E34663466343F3400343C34663413
:1004F80003340334033466343C3400341F34363454
:1005080066346634663436341F3400347F344634F7
:1005180016341E34163446347F3400347F3446345F
:1005280016341E34163406340F3400343C34663422
:1005380003340334733466347C3400343334333452
:1005480033343F3433343334333400341E340C34CE
:100558000C340C340C340C341E34003478343034FD
:1005680030343034333433341E3400346734663432
:1005780036341E3436346634673400340F34063467
:1005880006340634463466347F34003463347734B2
:100598007F347F346B3463346334003463346734BA
:1005A8006F347B3473346334633400341C3436342E
:1005B80063346334633436341C3400343F34663473
:1005C80066343E34063406340F3400341E34333473
:1005D800333433343B341E34383400343F346634D7
:1005E80066343E3436346634673400341E3433346B
:1005F80007340E34383433341E3400343F342D3449
:100608000C340C340C340C341E340034333433348E
:1006180033343334333433343F34003433343334C1
:100628003334333433341E340C3400346334633499
:1006380063346B347F347734633400346334633425
:1006480036341C341C343634633400343334333495
:1006580033341E340C340C341E3400347F34633489
:10066800313418344C3466347F3400341E34063444
:1006780006340634063406341E3400340334063493
:100688000C34183430346034403400341E34183498
:1006980018341834183418341E34003408341C3410
:1006A8003634633400340034003400340034003409
:1006B80000340034003400340034FF340C340C347B
:1006C800183400340034003400340034003400346A
:1006D8001E3430343E3433346E3400340734063438
:1006E80006343E34663466343B3400340034003417
:1006F8001E343334033433341E3400343834303445
:1007080030343E34333433346E34003400340034FF
:100718001E3433343F3403341E3400341C3436342E
:1007280006340F34063406340F34003400340034F1
:100738006E34333433343E3430341F3407340634A3
:1007480036346E3466346634673400340C3400341E
:100758000E340C340C340C341E3400343034003471
:10076800303430343034333433341E3407340634C0
:10077800663436341E343634673400340E340C3460
:100788000C340C340C340C341E3400340034003473
:1007980033347F347F346B346334003400340034B2
:1007A8001F343334333433343334003400340034B6
:1007B8001E343334333433341E34003400340034BC
:1007C8003B34663466343E3406340F340034003427
:1007D8006E34333433343E343034783400340034B7
:1007E8003B346E34663406340F340034003400343D
:1007F8003E3403341E3430341F34003408340C348F
:100808003E340C340C342C341834003400340034A6
:1008180033343334333433346E34003400340034F6
:100828003334333433341E340C340034003400345D
:1008380063346B347F347F3436340034003400340E
:10084800633436341C3436346334003400340034B2
:100858003334333433343E3430341F3400340034CA
:100868003F3419340C3426343F34003438340C34D3
:100878000C3407340C340C3438340034183418343D
:1008880018340034183418341834003407340C344D
:100898000C3438340C340C34073400346E343B34A4
:1008A80000340034003400340034003400340034A0
:1008B8000034003400340034003400340034003490
:1008C8000034003400340034003400340034003480
:1008D8000034003400340034003400340034003470
:100AC800003400340034003400340034183418344E
:100AD80000341834183418341834003418341834DE
:100AE8007E34033403347E34183418341C343634DA
:100AF80026340F34063467343F340034003400346D
:100B080063343E3436343E3463340034333433345F
:100B18001E343F340C343F340C340C34183418343D
:100B28001834003418341834183400347C34C6347B
:100B38001C34363436341C3433341E3433340034E5
:100B48000034003400340034003400343C3442347F
:100B5800993485348534993442343C343C343634C1
:100B680036347C3400340034003400340034CC345F
:100B7800663433346634CC34003400340034003402
:100B880000343F343034303400340034003400341E
:100B98000034003400340034003400343C3442342F
:100BA8009D34A5349D34A53442343C347E3400341D
:100BB8000034003400340034003400341C3436343B
:100BC80036341C34003400340034003418341834FB
:100BD8007E341834183400347E3400341C343034F5
:100BE80018340C343C340034003400341C343034B1
:100BF800183430341C3400340034003418340C34C5
:100C0800003400340034003400340034003400343C
:100C18006634663466343E3406340334FE34DB34DA
:100C2800DB34DE34D834D834D834003400340034DB
:100C380000341834183400340034003400340034DC
:100C4800003400340034183430341E3408340C3482
:100C580008341C3400340034003400341C34363476
:100C680036341C3400340034003400340034333457
:100C78006634CC346634333400340034C3346334DB
:100C88003334BD34EC34F634F3340334C3346334CE
:100C980033347B34CC3466343334F0340334C434E2
:100CA8006334B434DB34AC34E63480340C3400348C
:100CB8000C340634033433341E340034073400341F
:100CC8001C34363463347F34633400347034003475
:100CD8001C34363463347F34633400341C34363483
:100CE80000343E3463347F34633400346E343B3430
:100CF80000343E3463347F346334003463341C344A
:100D0800363463347F346334633400340C340C3445
:100D180000341E3433343F34333400347C343634B6
:100D280033347F3433343334733400341E3433343F
:100D3800033433341E34183430341E34073400344A
:100D48003F3406341E3406343F340034383400341B
:100D58003F3406341E3406343F3400340C34123425
:100D68003F3406341E3406343F34003436340034FD
:100D78003F3406341E3406343F340034073400341C
:100D88001E340C340C340C341E3400343834003423
:100D98001E340C340C340C341E3400340C3412342D
:100DA80000341E340C340C341E3400343334003414
:100DB8001E340C340C340C341E3400343F34663486
:100DC8006F346F34663466343F3400343F34003453
:100DD800333437343F343B34333400340E34003446
:100DE80018343C3466343C341834003470340034DD
:100DF80018343C3466343C34183400343C3466349B
:100E080018343C3466343C34183400346E343B3483
:100E180000343E34633463343E340034C33418340D
:100E28003C34663466343C34183400340034363488
:100E38001C3408341C343634003400345C34363402
:100E480073347B346F3436341D3400340E3400343C
:100E580066346634663466343C34003470340034A6
:100E680066346634663466343C3400343C34663464
:100E780000346634663466343C3400343334003429
:100E880033343334333433341E3400347034003460
:100E9800663466343C341834183400340F3406345D
:100EA8003E34663466343E3406340F3400341E341F
:100EB80033341F3433341F340334033407340034D9
:100EC8001E3430343E3433347E3400343834003405
:100ED8001E3430343E3433347E3400347E34C334EC
:100EE8003C3460347C346634FC3400346E343B3437
:100EF8001E3430343E3433347E34003433340034DA
:100F08001E3430343E3433347E3400340C340C34E4
:100F18001E3430343E3433347E34003400340034EC
:100F2800FE343034FE343334FE34003400340034BC
:100F38001E34033403341E3430341C340734003474
:100F48001E3433343F3403341E3400343834003410
:100F58001E3433343F3403341E3400347E34C334F7
:100F68003C3466347E3406343C3400343334003444
:100F78001E3433343F3403341E3400340734003411
:100F88000E340C340C340C341E3400341C3400344D
:100F98000E340C340C340C341E3400343E346334B8
:100FA8001C341834183418343C34003433340034C6
:100FB8000E340C340C340C341E3400341B340E3410
:100FC8001B3430343E3433341E34003400341F3480
:100FD80000341F34333433343334003400340734AA
:100FE80000341E34333433341E340034003438347F
:100FF80000341E34333433341E3400341E34333456
:1010080000341E34333433341E3400346E343B34ED
:1010180000341E34333433341E3400340034333453
:1010280000341E34333433341E3400341834183446
:1010380000347E34003418341834003400346034FA
:101048003C3476347E346E343C3406340034073411
:1010580000343334333433347E3400340034383499
:1010680000343334333433347E3400341E34333470
:1010780000343334333433347E340034003433347E
:1010880000343334333433347E3400340034383469
:101098000034333433343E3430341F3400340034B5
:1010A80006343E3466343E3406340034FF34FF34AC
:1010B800FF34FF34FF34FF34FF34FF3454346834D2
:1010C80065344C34413442342E346D347334003436
:0210D8000134E1
:1010E00022008C01FF3021008C0023008C01023093
:1010F00022008D00013021008D0024008D0122008E
:101100008E01FD3021008E00FE3022008F00210074
:101110008F01FF30220090002100900123009001F8
:10112000FF3027008C0026008C0128008C0127004E
:101130008D013F3026008D00183028008D002900D9
:101140008D012100951722009D01270015148B1594
:1011500008009431772488310A302000C10041080A
:10116000E8000A30C1004108E7000A30C100410828
:10117000E60001302100A8000030A900EF28AE01F0
:101180000A302E020318EF282000A7010030A80023
:10119000A90021002E08623E840088300318013E19
:1011A000850000089531AA2588312100AD01643001
:1011B0002D020318E82889316E2188310130200082
:1011C000C10041082100AD0764302D02031CDB285B
:1011D00001302000C10041082100AE07C028953130
:1011E0004E2588312100280829040319BF28AE01A3
:1011F0000A302E020318EF28AB01AC0100302C029C
:10120000083003192B02031867292E08013E20001D
:10121000C100003003180130C200003042020A3021
:1012200003194102031C1C296230840088308500A8
:101230000008C10041082E2921002E08013E20008F
:10124000C100003003180130C20062304107840041
:101250008830423D85000008C30043082100AA00F1
:101260002A082000C1004108A70021002C08200006
:10127000A90021002B082000A80021002E08623EB2
:10128000840088300318013E850000089531AA25A6
:1012900088312100AD010C302D0203185C29893101
:1012A0006E21883101302000C10041082100AD07C6
:1012B0000C302D02031C4F290130AB070030AC3D30
:1012C00000302C02083003192B02031C05290130C1
:1012D0002000C10041082100AE07F8282000A0012D
:1012E000A101003021024030031920020318080038
:1012F0002108F5002008F400F435F50D7030F600F3
:101300002230F7007408760786007508773D87005D
:101310001600010403198C2B003021020830031938
:1013200020020318952922008D140030200021028C
:10133000083003192002031CA629003021021030B6
:10134000031920020318A62922000D1500302000E1
:101350002102103003192002031CB729003021029A
:101360001830031920020318B72922008D15003008
:1013700020002102183003192002031CC829003064
:1013800021022030031920020318C82922000D165B
:10139000003020002102203003192002031CD9292B
:1013A000003021022830031920020318D929220015
:1013B0008D16003020002102283003192002031C62
:1013C000EA29003021023030031920020318EA29EB
:1013D00022000D17003020002102303003192002B6
:1013E000031CFB29003021023830031920020318A6
:1013F000FB2922008D17003020002102383003190C
:101400002002031C0C2A0030210240300319200264
:1014100003180C2A22008E1420002008210403192E
:10142000342A0830200621040319342A10302006FB
:1014300021040319342A1830200621040319342A00
:101440002030200621040319342A283020062104E4
:101450000319342A3030200621040319342A383085
:1014600020062104031D362A22000F10200020032D
:10147000210403195E2A09302006210403195E2A7B
:1014800011302006210403195E2A19302006210498
:1014900003195E2A21302006210403195E2A29300F
:1014A0002006210403195E2A313020062104031985
:1014B0005E2A393020062104031D602A22008F1184
:1014C00002302000200621040319892A0A30200650
:1014D00021040319892A1230200621040319892ABC
:1014E0001A30200621040319892A223020062104FB
:1014F0000319892A2A30200621040319892A323047
:10150000200621040319892A3A3020062104031DEC
:101510008B2A22000F130330200020062104031918
:10152000B42A0B30200621040319B42A13302006F4
:1015300021040319B42A1B30200621040319B42AFC
:101540002330200621040319B42A2B30200621045D
:101550000319B42A3330200621040319B42A3B307E
:1015600020062104031DB62A22009010043020001A
:10157000200621040319DF2A0C3020062104031958
:10158000DF2A1430200621040319DF2A1C3020062C
:1015900021040319DF2A2430200621040319DF2A3D
:1015A0002C30200621040319DF2A343020062104C0
:1015B0000319DF2A3C3020062104031DE12A220002
:1015C0001012053020002006210403190A2B0D30CB
:1015D0002006210403190A2B1530200621040319C3
:1015E0000A2B1D302006210403190A2B2530200662
:1015F000210403190A2B2D302006210403190A2B7C
:1016000035302006210403190A2B3D302006210421
:10161000031D0C2B2200901306302000200621040D
:101620000319352B0E30200621040319352B1630F3
:10163000200621040319352B1E302006210403192E
:10164000352B2630200621040319352B2E30200699
:1016500021040319352B3630200621040319352BBC
:101660003E3020062104031D372B27000C110730C4
:101670002000200621040319602B0F3020062104CE
:101680000319602B1730200621040319602B1F302B
:10169000200621040319602B27302006210403199A
:1016A000602B2F30200621040319602B37302006D1
:1016B00021040319602B3F3020062104031D622BF7
:1016C00027008C1220002108F5002008F400F435D2
:1016D000F50D7030F6002230F700740876078600AA
:1016E0007508773D8700403FF200413FF300943199
:1016F0006C24893122008D100D118D110D128D1267
:101700000D138D138E100F148F150F1790141016C4
:10171000901727000C158C1620002108F5002008D2
:10172000F400F435F50DF030F6002230F7007408BF
:10173000760786007508773D8700160001040319B7
:10174000A12D003021020830031920020318AA2B12
:1017500022008D14003020002102083003192002DD
:10176000031CBB2B00302102103003192002031888
:10177000BB2B22000D150030200021021030031970
:101780002002031CCC2B0030210218300319200248
:101790000318CC2B22008D150030200021021830B8
:1017A00003192002031CDD2B003021022030031915
:1017B00020020318DD2B22000D160030200021022C
:1017C000203003192002031CEE2B003021022830A8
:1017D000031920020318EE2B22008D160030200082
:1017E0002102283003192002031CFF2B00302102A4
:1017F0003030031920020318FF2B22000D17003090
:1018000020002102303003192002031C102C00306C
:1018100021023830031920020318102C22008D17E2
:10182000003020002102383003192002031C212C33
:10183000003021024030031920020318212C22001D
:101840008E142000200821040319492C083020069A
:1018500021040319492C1030200621040319492CB6
:101860001830200621040319492C203020062104B9
:101870000319492C2830200621040319492C303043
:10188000200621040319492C383020062104031DA9
:101890004B2C22008F102000200321040319732CED
:1018A0000930200621040319732C1130200621046D
:1018B0000319732C1930200621040319732C2130CD
:1018C000200621040319732C293020062104031952
:1018D000732C3130200621040319732C3930200673
:1018E0002104031D752C22000F1202302000200657
:1018F000210403199E2C0A302006210403199E2C72
:1019000012302006210403199E2C1A3020062104CF
:1019100003199E2C22302006210403199E2C2A3004
:101920002006210403199E2C3230200621040319BD
:101930009E2C3A3020062104031DA02C22008F1378
:1019400003302000200621040319C92C0B30200687
:1019500021040319C92C1330200621040319C92CB2
:101960001B30200621040319C92C23302006210432
:101970000319C92C2B30200621040319C92C33303C
:10198000200621040319C92C3B3020062104031D25
:10199000CB2C220010110430200020062104031952
:1019A000F42C0C30200621040319F42C14302006EA
:1019B00021040319F42C1C30200621040319F42CF3
:1019C0002430200621040319F42C2C302006210495
:1019D0000319F42C3430200621040319F42C3C3074
:1019E00020062104031DF62C220090120530200051
:1019F0002006210403191F2D0D3020062104031990
:101A00001F2D15302006210403191F2D1D3020061F
:101A1000210403191F2D25302006210403191F2D31
:101A20002D302006210403191F2D353020062104F6
:101A300003191F2D3D3020062104031D212D2700F1
:101A40000C10063020002006210403194A2D0E3008
:101A50002006210403194A2D1630200621040319FB
:101A60004A2D1E302006210403194A2D2630200657
:101A7000210403194A2D2E302006210403194A2D72
:101A800036302006210403194A2D3E302006210459
:101A9000031D4C2D27008C11073020002006210447
:101AA0000319752D0F30200621040319752D1730E9
:101AB000200621040319752D1F3020062104031967
:101AC000752D2730200621040319752D2F3020068F
:101AD00021040319752D3730200621040319752DB3
:101AE0003F3020062104031D772D27000C13200012
:101AF0002108F5002008F400F435F50DF030F6006B
:101B00002230F7007408760786007508773D870055
:101B1000403FF200413FF30094316C2489312200B0
:101B20008D100D118D110D128D120D138D138E1040
:101B30008F140F168F171015901627000C148C1584
:101B40000C1720002108F5002008F400F435F50DED
:101B50007030F6002330F7007408760786007508A9
:101B6000773D8700160001040319B62F00302102CB
:101B70000830031920020318BF2D22008D140030F5
:101B800020002102083003192002031CD02D003050
:101B900021021030031920020318D02D22000D1548
:101BA000003020002102103003192002031CE12D17
:101BB000003021021830031920020318E12D220001
:101BC0008D15003020002102183003192002031C5B
:101BD000F22D003021022030031920020318F22DCB
:101BE00022000D16003020002102203003192002AF
:101BF000031C032E00302102283003192002031891
:101C0000032E22008D1600302000210228300319F7
:101C10002002031C142E0030210230300319200250
:101C20000318142E22000D1700302000210230303E
:101C300003192002031C252E00302102383003191D
:101C400020020318252E22008D17003020002102CB
:101C5000383003192002031C362E00302102403098
:101C6000031920020318362E22008E1420002008AB
:101C7000210403195E2E08302006210403195E2E6C
:101C800010302006210403195E2E1830200621048E
:101C900003195E2E20302006210403195E2E283001
:101CA0002006210403195E2E30302006210403197A
:101CB0005E2E383020062104031D602E22000F11F5
:101CC0002000200321040319882E09302006210456
:101CD0000319882E1130200621040319882E19308B
:101CE000200621040319882E21302006210403191F
:101CF000882E2930200621040319882E3130200631
:101D000021040319882E393020062104031D8A2E50
:101D100022008F1202302000200621040319B32E66
:101D20000A30200621040319B32E123020062104A4
:101D30000319B32E1A30200621040319B32E2230C2
:101D4000200621040319B32E2A302006210403198A
:101D5000B32E3230200621040319B32E3A30200668
:101D60002104031DB52E2200101003302000200690
:101D700021040319DE2E0B30200621040319DE2E68
:101D80001330200621040319DE2E1B302006210407
:101D90000319DE2E2330200621040319DE2E2B30FA
:101DA000200621040319DE2E3330200621040319F6
:101DB000DE2E3B3020062104031DE02E2200901170
:101DC00004302000200621040319092F0C302006BE
:101DD00021040319092F1430200621040319092FA7
:101DE0001C30200621040319092F24302006210469
:101DF0000319092F2C30200621040319092F343030
:101E0000200621040319092F3C3020062104031D5C
:101E10000B2F220010130530200020062104031987
:101E2000342F0D30200621040319342F15302006DD
:101E300021040319342F1D30200621040319342FE7
:101E40002530200621040319342F2D3020062104CB
:101E50000319342F3530200621040319342F3D3067
:101E600020062104031D362F27008C100630200089
:101E70002006210403195F2F0E30200621040319C8
:101E80005F2F16302006210403195F2F1E30200615
:101E9000210403195F2F26302006210403195F2F28
:101EA0002E302006210403195F2F3630200621042E
:101EB00003195F2F3E3020062104031D612F2700E8
:101EC0000C12073020002006210403198A2F0F303E
:101ED0002006210403198A2F173020062104031934
:101EE0008A2F1F302006210403198A2F273020064D
:101EF000210403198A2F2F302006210403198A2F69
:101F000037302006210403198A2F3F302006210490
:101F1000031D8C2F27008C1320002108F5002008BA
:101F2000F400F435F50D7030F6002330F700740836
:101F3000760786007508773D8700403FF200413FF5
:101F4000F30094316C24893122008D100D118D1114
:101F50000D128D120D138D138E100F158F16101478
:101F60009015101727008C140C168C1720002108D0
:101F7000F5002008F400F435F50D7030F60022303D
:101F8000F7007408760786007508773D870016000D
:101F90000104031DFA2F2108F5002008F400F43590
:101FA000F50DF030F6002230F70074087607860051
:101FB0007508773D870016000104031DFA2F2108DC
:101FC000F5002008F400F435F50D7030F6002330EC
:101FD000F7007408760786007508773D87001600BD
:101FE0000104031DFA2F0230F2000030F300943197
:101FF0006C24893101302000A0070030A13D7129F7
:1028BE007A30210099009A01980108002700151C12
:1028CE000800161C0800161008007208730403197D
:1028DE000800003200320130F2020030F33B6C2C63
:1028EE0094315F24943188317020943194318F2447
:1028FE0094319431A9240800640080010131013023
:10290E00FE020030FF3B7F087E0403190034842C46
:10291E00210091121112483023009F0080309D003B
:10292E0026309E0022309B009C012000E001E10138
:10293E000830F2007208E900DE01DF01DD0121003E
:10294E0091160800210094121412483029009700A5
:10295E008030950026309600223093009401FB01C2
:10296E002000E5010830F2007208EA00E301E401FC
:10297E00E20121009416080023009D1CC82C1D1294
:10298E001D161908F00020005E08A03E8600870183
:10299E00700881000130F0007008DE0708305E021A
:1029AE000318DE010130F0007008DD070800290071
:1029BE00951CE32C151215161108F0002000630863
:1029CE004C3E86008701700881000130F0007008CF
:1029DE00E307083063020318E3010130F0007008CA
:1029EE00E2070800F601F701721C012D7408F607C4
:1029FE007508F73D0130F435F50D890B022D0130C8
:102A0E00F336F20C890B072D72087304031DFB2C91
:102A1E007708F3007608F2000800083020006902FB
:102A2E0003182E2D6108443E8600870101082300FD
:102A3E009A000130F00070082000E10708306102B2
:102A4E000318E1010130F0007008E90708002100C9
:102A5E0011120800083020006A0203184B2D650879
:102A6E00543E860087010108290092000130F000D3
:102A7E0070082000E507083065020318E5010130F3
:102A8E00F0007008EA070800210014120800220066
:102A9E008D100D118D110D128D120D138D138E10B3
:102AAE000F148F150F1790141016901727000C1572
:102ABE008C1622008F140F168F17101590162700E4
:102ACE000C148C150C1722000F158F161014901560
:102ADE00101727008C140C168C1708002000A50167
:102AEE00A601200821040319A52DA401A40AA11BE7
:102AFE008A2D0130A035A10D890B812D0130F800F2
:102B0E007808A4077E2D0130A535A60D890B8B2DD7
:102B1E0021082302031D952D20082202031C9C2D43
:102B2E002008A2022108A33B25140130A136A00CD7
:102B3E00890B9D2D0130A402031D8A2D2608A100AC
:102B4E002508A00008002000B400BD01BE01BF0191
:102B5E00C001B701B801B501B60100303602083028
:102B6E000319350203180800BB01BC0100303C02FA
:102B7E00083003193B020318D92E29083C02031D05
:102B8E00CA2D28083B02031CCE2E3408AA00AB0126
:102B9E00AA35AB0DAA35AB0DAA35AB0D6230AC0024
:102BAE008030AD002A082C07AE002B082D3DAF005B
:102BBE002E08350784002F08363D85000008B0002A
:102BCE006C308400883085000008B1003B0AF02D7F
:102BDE00B135890BEF2D310830050319F82D013071
:102BEE00F92D0030B200B3013208BD003308BE002B
:102BFE003408AA00AB01AA09AB09AA0A0319AB0A49
:102C0E002A08903EBF0001302B3DC0009030A0003E
:102C1E000130A1006808AA00AB012A08F2002B08B7
:102C2E00F3004008F5003F08F4009431F924953183
:102C3E0073082000A3007208A20095317525953106
:102C4E0020002108BA002008B9003A08F30039081C
:102C5E00F2003E08F5003D08F4009431F924953158
:102C6E0020003808AB003708AA00AA35AB0D70302B
:102C7E00AC002230AD002A082C0786002B082D3D13
:102C8E0087007208C03F7308C13F9030A00001302A
:102C9E00A1006708AA00AB012A08F2002B08F30076
:102CAE004008F5003F08F4009431F924953173087B
:102CBE002000A3007208A2009531752595312000E1
:102CCE002108BA002008B9003A08F3003908F200CA
:102CDE003E08F5003D08F4009431F92495312000AA
:102CEE003808AB003708AA00AA35AB0DF030AC009F
:102CFE002230AD002A082C0786002B082D3D8700B8
:102D0E007208C03F7308C13F9030A0000130A1008F
:102D1E006608AA00AB012A08F2002B08F30040084F
:102D2E00F5003F08F4009431F92495317308200022
:102D3E00A3007208A2009531752595312000210857
:102D4E00BA002008B9003A08F3003908F2003E082C
:102D5E00F5003D08F4009431F9249531200038082F
:102D6E00AB003708AA00AA35AB0D7030AC0023308B
:102D7E00AD002A082C0786002B082D3D870072080F
:102D8E00C03F7308C13F0130B7070030B83D013076
:102D9E00BB070030BC3D00303C02083003193B023B
:102DAE00031CC42D280829040319FB2FBB01BC01E9
:102DBE0000303C02083003193B020318FB2F290890
:102DCE003C02031DEC2E28083B020318F02F2708A7
:102DDE00AA00AB01AA35AB0DAA35AB0DAA35AB0DCA
:102DEE006230AC008030AD002A082C07AE002B08F4
:102DFE002D3DAF002E08350784002F08363D850087
:102E0E000008B0006C308400883085000008B100E6
:102E1E003B0A122FB135890B112F310830050319DA
:102E2E001A2F01301B2F0030B200B3013208BD0043
:102E3E003308BE002708AA00AB01AA09AB09AA0AEB
:102E4E000319AB0A2A08903EBF0001302B3DC0008B
:102E5E009030A0000130A1006808AA00AB012A083A
:102E6E00F2002B08F3004008F5003F08F4009431FF
:102E7E00F924953173082000A3007208A200953141
:102E8E007525953120002108BA002008B9003A08AE
:102E9E00F3003908F2003E08F5003D08F4009431C5
:102EAE00F924953120003808AB003708AA00AA355E
:102EBE00AB0D7030AC002230AD002A082C07860016
:102ECE002B082D3D87007208C03F7308C13F90301C
:102EDE00A0000130A1006708AA00AB012A08F20089
:102EEE002B08F3004008F5003F08F4009431F92454
:102EFE00953173082000A3007208A2009531752544
:102F0E00953120002108BA002008B9003A08F300D4
:102F1E003908F2003E08F5003D08F4009431F9241A
:102F2E00953120003808AB003708AA00AA35AB0D42
:102F3E00F030AC002230AD002A082C0786002B089A
:102F4E002D3D87007208C03F7308C13F9030A0002E
:102F5E000130A1006608AA00AB012A08F2002B0876
:102F6E00F3004008F5003F08F4009431F924953140
:102F7E0073082000A3007208A200953175259531C3
:102F8E0020002108BA002008B9003A08F3003908D9
:102F9E00F2003E08F5003D08F4009431F924953115
:102FAE0020003808AB003708AA00AA35AB0D7030E8
:102FBE00AC002330AD002A082C0786002B082D3DCF
:102FCE0087007208C03F7308C13F0130B707003059
:102FDE00B83D0130BB070030BC3D00303C0208302C
:102FEE0003193B02031CE62E0130B5070030B63D37
:022FFE00B42DF0
:020000040001F9
:04000E00E4FFFFDF2D
:00000001FF
